:100000002823FF1F619200004D9300008F480000DD
:1000100073490000AF4900002B4C000000000000B5
:100020000000000000000000000000003357000046
:10003000B36300000000000013640000FF8F0000A5
:100040007D930000859300008D9300009593000040
:100050009D930000A5930000AD930000B5930000B0
:10006000BD930000C5930000CD930000D593000020
:10007000DD930000E5930000ED930000F593000090
:10008000FD930000259500002595000025950000B2
:100090002595000025950000259500002595000078
:1000A000059400000D940000159400001D940000BC
:1000B000259400002D940000259500003594000043
:1000C0003D940000459400004D94000055940000BC
:1000D0005D940000659400006D940000259500007B
:1000E0002595000025950000259500002595000028
:1000F0002595000025950000259500002595000018
:10010000A17A0000CD7E00004D8000005F800000DD
:1001100025950000259500002595000025950000F7
:1001200025950000259500002595000025950000E7
:10013000697A0000259500002595000025950000AE
:100140002595000075940000758000007D940000E6
:1001500025950000259500002595000025950000B7
:100160002595000025950000859400008D940000E1
:10017000959400009D940000A5940000AD940000AB
:10018000B5940000BD940000C5940000CD9400001B
:10019000D5940000DD940000E59400002595000052
:1001A000259500002595000025950000ED940000A0
:1001B0002595000025950000F5940000FD940000B1
:1001C000059500000D950000159500001D95000097
:1001D0002595000025950000259500002595000037
:1001E0002595000025950000259500002595000027
:1001F0002595000025950000259500002595000017
:100200002595000025950000259500002595000006
:1003F000259500002595000025950000FFFFFFFFD3
:10040000FFFFFFFFFFFFFFFFFFFFFFFFFEFFFFFFFD
:1004100000F00700C0F1070310B4042B88BF0423C9
:10042000041D072C34BF0020C01E012404FA03F36E
:100430005B1E1940814004FA00F0401E104010BCC1
:10044000084370472DE9F04B2DED108B94B00E2032
:1004500001F092FDDFF8F44CDFF8F40C2268DFF8CD
:10046000F45CDFF8F46C4FF6FF010A4002432260AF
:1004700001F00CFEDFF8E42C0021002001F051FF18
:1004800004E02A460021002001F04BFF4FF4E13147
:10049000304601F0A8FF0028F3D1DFF8042DDFF883
:1004A000045D002101F03DFFDFF8FC2C002100205D
:1004B00001F037FF04E02A460021002001F031FF5F
:1004C00002F038F80028F6D1DFF8E02CDFF8E05C25
:1004D000002101F026FFDFF8DC2C0021002001F0D4
:1004E00020FF04E02A460021002001F01AFF02F05C
:1004F00097F80028F6D1DFF8C02CDFF8105D002156
:1005000001F00FFFDFF8082D0021002001F009FFA6
:1005100004E02A460021002001F003FF02F092F8D7
:100520000028F6D1DFF8EC2CDFF8EC5C002101F0BC
:10053000F8FEDFF8E82C0021002001F0F2FE04E0D4
:100540002A460021002001F0ECFE02F08DF8002880
:10055000F6D1DFF8F82CDFF8F85C002101F0E1FEBD
:10056000DFF8F02C0021002001F0DBFE04E02A4639
:100570000021002001F0D5FE03F087FB0028F6D112
:10058000DFF8D42CDFF8005DDFF8007D002101F0FA
:10059000C8FEDFF8FC2C0021002001F0C2FE41F66D
:1005A0007E5332220021DFF8EC0C03F0CFFC41F641
:1005B000EE3332220121DFF8DC0C03F0C7FC00230C
:1005C00032220221DFF8CC0C03F0C0FC00233222DF
:1005D0000321DFF8C00C03F0B9FCDFF8BC2C0021CC
:1005E000002001F09EFE0521002003F00FFE642193
:1005F000012003F00BFE206802220221C0F302203A
:10060000FFF706FF00012870022220680221C0F3D4
:100610000220FFF7FDFE0001DFF8802C68704FF428
:10062000803111604FF400301060DFEDAAFA01F064
:100630002BFEDFF86C0C029041F2446603F00EFED4
:1006400001220121512003F01DFE4FF4FA7003F046
:1006500083FE00220121512003F014FE07F16800FF
:1006600001902FE042F2815188420FDB4FF4165087
:10067000B8810BE042F281529042A8BF4FF416506D
:100680007881B7F90C00B042ECDABE81DFF8044C97
:10069000FA880021204603F09DFC3A89012120467A
:1006A00003F098FC7A890221204603F093FCBA8972
:1006B0000321204603F08EFC002001F0A0FF05205E
:1006C00003F04AFE0020387107F142010091342006
:1006D00003F032FE00284FD140F6B83003F03CFE64
:1006E000342003F029FE002846D1002201211120E8
:1006F00003F0C8FD00220121402003F0C3FD0022C9
:1007000001216F2003F0BEFD002201219A2003F099
:10071000B9FD01220121512003F0B4FD0098B0F988
:10072000100018B900990120088208E0012806D1BC
:10073000009900200882009988820099C8824FF4AD
:10074000FA6003F009FE01220121112003F09AFD55
:1007500001220121402003F095FD012201216F209B
:1007600003F090FD012201219A2003F08BFD00226D
:100770000121512003F086FD352003F0DDFD90B905
:100780004FF4FA7003F0E8FD352003F0D5FD50B9C1
:100790000098B0F9120008B9012002E0012802D146
:1007A000002000994882362003F0C6FD50BB4FF46C
:1007B000FA7003F0D1FD362003F0BEFD10BB0098A7
:1007C000B0F91400B8B90098B0F91010012919D186
:1007D00000990120888241F6EE3141F67E50F88082
:1007E00039817E81BE8100210198016201984162B8
:1007F0000198816206E0012804D1009900208882D6
:100800000099C882DFF8500901798A0624D57879E1
:10081000E0B901220121512003F034FD642003F0EE
:100820009BFD00220121512003F02CFD7878B87047
:100830003978DFF82409797001F05AFE3871387080
:100840003946DFF8440C03F009FD05E0DFF808093C
:1008500001F04EFE002078713879352806D1DFF896
:100860002C0C03F0FBFC029803F0F8FC38793628D6
:1008700023D10098B0F9100010B9DFF8140C17E07C
:10088000012840F0CE870098B0F91400012808BF75
:10089000DFF8000C0CD0002840F0C887DFF8F80B18
:1008A00003F0DCFC0120787103F072FDDFF8EC0B43
:1008B00003F0D4FC029803F0D1FC3879372851D1E9
:1008C0000098B0F91000012806D1DFF8D40B03F02E
:1008D000C5FC44E000F0EB45002840F08B87012286
:1008E0000121512003F0CEFC4FF4FA7003F034FDE7
:1008F00000220121512003F0C5FCDFF8A80B03F012
:10090000ADFCDFF8A40B4FF4803404600460DFF822
:100910009C0B03F0A3FC01F0A7FE0028FBD1DFF83D
:10092000900B03F09BFC03F0B0F90028FBD1DFF83B
:100930006C0904604FF400310160DFF8780B03F0BC
:100940008DFC01220121512003F09CFC4FF4FA7030
:1009500003F002FD00220121512003F093FC0298D4
:1009600003F07CFC387972281ED10098B0F9100091
:1009700010B9DFF81C0B12E0012840F052870098F4
:10098000B0F91400012808BFDFF82C0B07D00028AD
:1009900040F04C87009901208882DFF8200B03F09B
:1009A0005DFC029803F05AFC387966281ED1009845
:1009B000B0F9100010B9DFF8D80A12E0012840F0B1
:1009C00030870098B0F91400012805D10099002063
:1009D0008882DFF8EC0A04E0002840F02787DFF87F
:1009E000E40A03F03BFC029803F038FC38796928EC
:1009F0001ED10098B0F9100020B9DFF8940A03F076
:100A00002DFC12E0012840F00C8700984089401C22
:100A100001B21E290099C8BF1E2048810098B0F974
:100A20000A10DFF8A40A03F019FC029803F016FC80
:100A300038796B2820D10098B0F9100020B9DFF880
:100A4000500A03F00BFC14E0012840F0EA860098FD
:100A50004189481E02B2009912F11E0FB8BF6FF013
:100A60001D0048810098B0F90A10DFF85C0A03F015
:100A7000F5FB029803F0F2FB38796A2820D1009840
:100A8000B0F9100020B9DFF8080A03F0E7FB14E022
:100A9000012840F0C6860098C189481E02B200991C
:100AA00012F11E0FB8BF6FF01D00C8810098B0F999
:100AB0000E10DFF8180A03F0D1FB029803F0CEFB0A
:100AC00038796C281ED10098B0F9100020B9DFF8F1
:100AD000C00903F0C3FB12E0012840F0A286009891
:100AE000C089401C01B21E290099C8BF1E20C881C0
:100AF0000098B0F90E10DFF8D40903F0AFFB0298AC
:100B000003F0ACFB387975281ED10098B0F91000BD
:100B100020B9DFF87C0903F0A1FB12E0012840F0C6
:100B2000808600988089401C01B21E290099C8BFA8
:100B30001E2088810098B0F90C10DFF8940903F0AA
:100B40008DFB029803F08AFB38796F2820D100983A
:100B5000B0F9100020B9DFF8380903F07FFB14E08A
:100B6000012840F05E8600988189481E02B20099F3
:100B700012F11E0FB8BF6FF01D0088810098B0F908
:100B80000C10DFF84C0903F069FB029803F066FBD8
:100B9000387967284AD10098B0F9100020B9DFF8F9
:100BA000F00803F05BFB3EE0012840F03A86009835
:100BB000008B401C01B202290099C8BF00200883A5
:100BC0000098B0F9181019B1022907D003D309E031
:100BD000DFF8000904E0DFF8000901E0DFF8FC08B5
:100BE00003F03CFB0098B0F91A10032910D8DFE895
:100BF00001F00205080BDFF8E80807E0DFF8E40879
:100C000004E0DFF8E40801E0DFF8E00803F026FB89
:100C10000099B1F91C0000280CBFDFF8D408DFF8F8
:100C2000D40803F01BFB029803F018FB3879622804
:100C30004AD10098B0F9100020B9DFF8540803F049
:100C40000DFB3EE0012840F0EC850098408B401CF5
:100C500001B204290099A8BF002048830098B0F988
:100C6000181019B1022907D003D309E0DFF864088E
:100C700004E0DFF8640801E0DFF8600803F0EEFA52
:100C80000098B0F91A10032910D8DFE801F0020526
:100C9000080BDFF84C0807E0DFF8480804E0DFF84D
:100CA000480801E0DFF8440803F0D8FA0099B1F9E8
:100CB0001C0000280CBFDFF83808DFF8380803F004
:100CC000CDFA029803F0CAFA387976284AD100980A
:100CD000B0F9100020B9DFF8B80703F0BFFA3EE022
:100CE000012840F09E850098808B401C01B20229AB
:100CF0000099A8BF002088830098B0F9181019B196
:100D0000022907D003D309E0DFF8C80704E0DFF8C1
:100D1000C80701E0DFF8C40703F0A0FA0098B0F9B3
:100D20001A10032910D8DFE801F00205080BDFF8DC
:100D3000B00707E0DFF8AC0704E0DFF8AC0701E03C
:100D4000DFF8A80703F08AFA0099B1F91C0000281F
:100D50000CBFDFF89C07DFF89C0703F07FFA0298CE
:100D600003F07CFA3879682840F00E820098B0F9D8
:100D7000100020B9DFF8180703F070FA01E201282B
:100D800040F04F850099B1F91800002860D108465D
:100D9000B0F91A1003295BD8DFE801F002193047D7
:100DA000B0F91C0048B9398A491C398209B2F88A5D
:100DB000401CF882DFF8400748E0B98B491CB98332
:100DC00009B2788C401C7884DFF830073EE0B0F937
:100DD0001C0048B9798A491C798209B2388B401CB9
:100DE0003883DFF81C0731E0F98B491CF98309B21D
:100DF000B88C401CB884DFF80C0727E0B0F91C0061
:100E000048B9B98A491CB98209B2788B401C7883E9
:100E1000DFF8F4061AE0398C491C398409B2F88CE1
:100E2000401CF884DFF8E40610E0B0F91C0000284C
:100E300000F0A781B7F840100098491CA7F84010AF
:100E400009B20288521C0280DFF8C40603F006FAD9
:100E50000098B0F91810012940F02581B0F91A1056
:100E6000032900F22081DFE811F004005B00B200EA
:100E70000B01B0F91C0000280198B7EE000A27D139
:100E8000D0ED0B0A80EE200ABFEE001A30EE011AF8
:100E9000F7EE001A81EE810A80ED0B0AF7EE000AE8
:100EA000019890ED0E1AC0EE810AFFEE001A70EE66
:100EB000A11AB7EE002A82EE212A80ED0E2A10EE4A
:100EC000100A03F0FFFA02460B46DFF84806D4E0AA
:100ED000D0ED110A80EE200ABFEE001A30EE011AA2
:100EE000F7EE001A81EE810A80ED110AF7EE000A92
:100EF000019890ED141AC0EE810AFFEE001A70EE10
:100F0000A11AB7EE002A82EE212A80ED142A10EEF3
:100F1000100A03F0D7FA02460B46DFF8FC05ACE0F6
:100F2000B0F91C0000280198B7EE000A27D1D0EDD7
:100F30000C0A80EE200ABFEE001A30EE011AF7EE1E
:100F4000001A81EE810A80ED0C0AF7EE000A019882
:100F500090ED0F1AC0EE810AFFEE001A70EEA11A92
:100F6000B7EE002A82EE212A80ED0F2A10EE100A39
:100F700003F0A8FA02460B46DFF8A0057DE0D0EDAD
:100F8000120A80EE200ABFEE001A30EE011AF7EEC8
:100F9000001A81EE810A80ED120AF7EE000A01982C
:100FA00090ED151AC0EE810AFFEE001A70EEA11A3C
:100FB000B7EE002A82EE212A80ED152A10EE100AE3
:100FC00003F080FA02460B46DFF8540555E0B0F90D
:100FD0001C0000280198B7EE000A27D1D0ED0D0AB9
:100FE00080EE200ABFEE001A30EE011AF7EE001A6A
:100FF00081EE810A80ED0D0AF7EE000A019890ED6E
:10100000101AC0EE810AFFEE001A70EEA11AB7EEB8
:10101000002A82EE212A80ED102A10EE100A03F039
:1010200051FA02460B46DFF8E00D26E0D0ED130A38
:1010300080EE200ABFEE001A30EE011AF7EE001A19
:1010400081EE810A80ED130AF7EE000A019890ED17
:10105000161AC0EE810AFFEE001A70EEA11AB7EE62
:10106000002A82EE212A80ED162A10EE100A03F0E3
:1010700029FA02460B46DFF8940D03F0EFF812E070
:101080000146B1F91C00002800F07B800846418829
:10109000491C418009B2009A9088401C9080DFF87A
:1010A000700D03F0DBF80098B0F91810022968D130
:1010B000B0F91A10032964D8DFE801F002193052A0
:1010C000B0F91C0048B9398D491C398509B2F88D31
:1010D000401CF885DFF83C0D51E0B98E491CB986FB
:1010E00009B2788F401C7887DFF82C0D47E0B0F903
:1010F0001C0048B9798D491C798509B2388E401C8D
:101100003886DFF8180D3AE0F98E491CF98609B2E5
:10111000B88F401CB887DFF8080D30E0B0F91C002C
:1011200048B9B98D491CB98509B2788E401C7886BA
:10113000DFF8F00C23E0398F491C398709B2F88FAA
:10114000401CF887DFF8E00C19E000BF0CED00E070
:101150000002FA05B889000000A00E40A88900002E
:101160000146B1F91C0060B10846C188491CC18024
:1011700009B2009A1089401C1081DFF8B00C03F00E
:101180006DF8029803F06AF838796E2840F06A82A8
:101190000098B0F9100088B9BD4803F05FF85EE22E
:1011A000C8890000E8890000D8890000F88900009B
:1011B000188A0000088A0000288A0000012840F0F0
:1011C00030830099B1F91800002840F07D8008466E
:1011D000B0F91A10032900F27780DFE801F002214C
:1011E0003F63B0F91C0040B9388A411E398209B208
:1011F000F88A421EFA82C04864E0B88B411EB98367
:1012000009B2788C421E7A84BC485BE0488A0000B0
:10121000388A0000588A0000788A0000688A000036
:10122000B0F91C0040B9788A411E798209B2388B26
:10123000421E3A83B24845E0F88B411EF98309B259
:10124000B88C421EBA84AF483CE000BF888A0000D8
:10125000A88A0000988A0000B88A0000B0F91C0033
:1012600040B9B88A411EB98209B2788B421E7A838E
:10127000A54827E0388C411E398409B2F88C421EFB
:10128000FA84A2481EE000BF30E400E00000FF1F27
:10129000C88A000000800340DC8A000004E100E00E
:1012A000EC8A0000B0F91C00002800F0D881B7F8E3
:1012B0004000411E0098A7F8401009B20288531E52
:1012C0000380934802F0CAFF0098B0F91810012972
:1012D00040F06281B0F91A10032900F25D81DFE865
:1012E00011F004005500A6004901B0F91C000028C7
:1012F0000198B7EE000A24D1D0ED0B0A80EE200A47
:10130000B7EE001A30EE011AF7EE001A81EE810AEC
:1013100080ED0B0AF7EE000A019890ED0E1AC0EE70
:10132000810A70EEA11AB7EE002A82EE212A80ED22
:101330000E2A10EE100A03F0C5F802460B46754857
:1013400015E1D0ED110A80EE200AB7EE001A30EE5A
:10135000011AF7EE001A81EE810A80ED110AF7EE0C
:10136000000A019890ED141AC0EE810A70EEA11ADD
:10137000B7EE002A82EE212A80ED142A10EE100A20
:1013800003F0A0F802460B466348F0E0B0F91C00F9
:1013900000280198B7EE000A24D1D0ED0C0A80EEA7
:1013A000200AB7EE001A30EE011AF7EE001A81EEAD
:1013B000810A80ED0C0AF7EE000A019890ED0F1AF1
:1013C000C0EE810A70EEA11AB7EE002A82EE212A41
:1013D00080ED0F2A10EE100A03F074F802460B4657
:1013E0004E48C4E0D0ED120A80EE200AB7EE001A93
:1013F00030EE011AF7EE001A81EE810A80ED120A32
:10140000F7EE000A019890ED151AC0EE810A70EE11
:10141000A11AB7EE002A82EE212A80ED152A10EEDD
:10142000100A03F04FF802460B463D489FE0B0F922
:101430001C0000280198B7EE000A73D1D0ED0D0A08
:1014400080EE200AB7EE001A30EE011AF7EE001A0D
:1014500081EE810A80ED0D0AF7EE000A019890ED09
:10146000101AC0EE810A70EEA11AB7EE002A82EEC1
:10147000212A80ED102A10EE100A03F023F802460C
:101480000B46DFF8840972E0FC8A0000088B00003C
:10149000108B0000188B0000208B0000308B0000A8
:1014A000488B0000508B000084E100E05C8B000062
:1014B0006C8B00007C8B0000908B0000A48B0000E4
:1014C000B08B0000BC8B0000D08B0000E08B0000D4
:1014D000EC8B0000FC8B0000088C0000148C0000DA
:1014E000208C0000308C0000408C0000508C0000EC
:1014F000648C0000748C0000848C0000988C0000C8
:10150000AC8C0000C08C0000D48C0000E48C000087
:10151000F48C0000088D00001C8D0000308D000050
:10152000448D0000D0ED130A80EE200AB7EE001AB9
:1015300030EE011AF7EE001A81EE810A80ED130AEF
:10154000F7EE000A019890ED161AC0EE810A70EECF
:10155000A11AB7EE002A82EE212A80ED162A10EE9B
:10156000100A02F0AFFF02460B460FF6C80002F069
:1015700075FE11E00146B1F91C0000286FD0084645
:101580004188491E418009B2009A9088431E938089
:10159000DFF89C0802F062FE0098B0F918100229EA
:1015A0005DD1B0F91A10032959D8DFE801F002190A
:1015B0003047B0F91C0048B9388D411E398509B251
:1015C000F88D421EFA850FF67C0046E0B88E411E6B
:1015D000B98609B2788F421E7A870FF67C003CE00C
:1015E000B0F91C0048B9788D411E798509B2388E52
:1015F000421E3A860FF674002FE0F88E411EF986DF
:1016000009B2B88F421EBA870FF6740025E0B0F910
:101610001C0048B9B88D411EB98509B2788E421EAA
:101620007A860FF6700018E0388F411E398709B2AC
:10163000F88F421EFA870FF66C000EE00146B1F9F2
:101640001C0060B10846C188491EC18009B2009AD9
:101650001089431E13810FF65C0002F0FFFD029813
:1016600002F0FCFD3879302824D10098B0F914003C
:1016700020B90FF6540002F0F1FD18E0012840F007
:10168000B9800FF6500002F0E9FD0099F889CA8B85
:10169000101802B240F675639A42A8BF40F6746013
:1016A000F881B7F90E100FF6380002F0D7FD029856
:1016B00002F0D4FD3879312821D10098B0F9140016
:1016C00020B90FF6040002F0C9FD15E0012840F032
:1016D00091800FF6180002F0C1FD0098F989C08BC7
:1016E000081A01B2002948BF0020F881B7F90E108E
:1016F0000FF2EC7002F0B2FD029802F0AFFD387903
:10170000782826D10098B0F9140020B90FF2B870EB
:1017100002F0A4FD1AE001286CD10FF2E07002F093
:101720009DFD00990020C8820FF2E07002F096FD46
:101730000099002088820FF2E87002F08FFD0020EF
:10174000F88100210FF2987002F088FD029802F0F3
:1017500085FD387938282CD10098B0F9140020B9CB
:101760000FF2647002F07AFD20E0012842D1009867
:10177000B0F91600A0B90198D0E90023002B08BFEA
:10178000002A0AD1C26D82660021019841660122B9
:101790000098C2820FF29C7006E00FF2AC7003E07A
:1017A000012803D10FF2B47002F058FD029802F044
:1017B00055FD387939281DD10098B0F9140020B9A9
:1017C0000FF2047002F04AFD11E0012812D10098D6
:1017D000B0F9160010B90FF2907006E0012806D19A
:1017E00000990020C8820FF2247002F037FD0298A1
:1017F00002F034FD0099B1F9100090B90098002171
:10180000818201220098C1820121402002F03AFD2C
:1018100041F67E50F88041F6EE3139810020788122
:10182000B8810098B0F91010012916D10099B1F9CA
:101830001400C0B9012000F0E2FE0099B1F91400D3
:1018400058B941F67E51F98041F6EE30388140F6C4
:10185000AC517981B981FEF719BF0098B0F9101029
:1018600001297EF413AF0098B0F9141001297EF419
:101870000DAF0198D0ED03EA0098B0F90C10B7F95C
:10188000120000EE101A0199B8EEC00A00EE900A9C
:10189000B7F92A0030EE2ECAF8EEE00A20EE8C0AE4
:1018A00091ED06FA91ED042A01EE100A00987FEE00
:1018B0006E0AB8EEC11AB0F90E10019860EE810AF6
:1018C00001EE101AB8EEC11A31EE029A90ED021A2A
:1018D0000098B0F90A10019890ED0A3A90ED08AA24
:1018E000D0ED072AD0ED09CA01EE901AF8EEE11A00
:1018F000B7F9141071EE811AB0EE6F4A04EE901A27
:10190000F8EEE44A32EE62DAD0ED0C2A90ED052AC8
:10191000B7F91000B7F92C1003EE900AF8EEE33A8D
:10192000019803EEA14A74EE403A44EE893A90EDF4
:101930000B4A62EEAC2A44EE0A3A73EEE23A90EDBC
:101940000D4AB7F9280004EE900A71EE42DA44EE2F
:10195000033AF8EEE44A44EEAD3A04EE101AB7F951
:10196000160073EEA03AB8EEC44A44EE0D3AB7F949
:101970001A10BDEEE34A03EE900AF8EEE33A01983E
:1019800014EE108A9FED014A02E000BF0070DF45AF
:1019900003EEE14A04EE901AA7F8068034EE400AFE
:1019A000F8EEE44A04EE890AD0ED0E3AB7F93210A7
:1019B00003EECA0A30EE620A32EE411AD0ED102A66
:1019C000B7F92E0002EE100A02EE830AB8EEC22A20
:1019D00001EE020A30EE200A00EE901AF8EEE00A5C
:1019E00000EE8D0AFDEEC00A10EE909AA7F808905E
:1019F00011EE900A02F066FD41EC180B53EC182B27
:101A000023F00043CDE9122319EE100A02F05AFD2B
:101A100041EC190B55EC194B25F00045CDE910456B
:101A20001AEE100A02F04EFD41EC1A0B53EC1A2B81
:101A300023F00043CDE90E231CEE900A02F042FD94
:101A400041EC1B0B55EC1B4B25F00045CDE90C453B
:101A50001DEE900A02F036FDCDE90801DDE908230C
:101A600023F00043CDE90A23B7F90E00301802F045
:101A70004DFDCDE906017EEECFEA1DEE100A02F023
:101A800021FDCDE90401019890ED170AD0ED180A67
:101A900030EE60DAD0ED1A0A0098B0F9161001980D
:101AA00090ED19FAB7F91C0070EEC0DA00EE101ACA
:101AB000B8EEC0EA02F02AFDDDE9122302F054FD7F
:101AC000DDE9062302F026FE0446B7F91E0000EE0B
:101AD000100AB8EEC00A20EE0C0A0D4610EE100AED
:101AE00002F0F0FC02460B462046294602F0D0FEEA
:101AF0000446B7F920000D4602F008FDDDE9102389
:101B000002F032FD22462B4602F004FE0D460199FA
:101B10000446486C02F0D6FCDDE90E2302F024FDF9
:101B200022462B4602F0F6FD0446019890ED120A7B
:101B300020EE2C0A0D4610EE100A02F0C3FC0246FD
:101B40000B462046294602F0A3FE04460198C06CCD
:101B50000D4602F0B7FCDDE90C2302F005FD22463C
:101B60002B4602F0D7FD0446B7F934000D4602F0CB
:101B7000CDFCDDE90A2302F0F7FC22462B4602F0F9
:101B8000C9FDB7F9364000EE104AB8EEC00A054666
:101B900020EE2E0A8B4610EE100A02F093FC02464D
:101BA0000B462846594602F073FE0446B7F9380042
:101BB0000D4602F0ABFCDDE9042323F0004302F004
:101BC000D3FC22462B4602F0A5FD0D460099B1F943
:101BD00006200446B7F9400000EE100AB1F90200F1
:101BE00001EE102AB8EEC00A00EE900AB8EEC11A53
:101BF000F0EE4F1A20EE2D0AF8EEE00A41EE0D1A33
:101C000000EEE10A2EEE000A10EE100A02F05AFC75
:101C100022462B4602F07EFD02F0ACFE55EC184B3E
:101C2000788125F0004551EC190B21F00041CDE9F8
:101C30000A0153EC1A2B51EC1B0B21F0004141EC33
:101C4000190BDDE9080121F00041CDE90C4541EC1B
:101C5000180B23F00043B7F9220043EC1A2B02F0D3
:101C600055FCDDE90C2302F07FFCDDE9062302F0E0
:101C700051FD0446B7F9240000EE100AB8EEC00A80
:101C800020EE0C0A0D4610EE100A02F01BFC224654
:101C90002B4602F03FFD0446B7F926000D4602F040
:101CA00035FCDDE90A2302F05FFC22462B4602F0F8
:101CB00031FD0D4601990446086D02F003FC53EC1A
:101CC0001A2B02F051FC22462B4602F023FD04465B
:101CD000019890ED150A20EE2C0A0D4610EE100A20
:101CE00002F0F0FB22462B4602F014FD0D4601994E
:101CF0000446886D02F0E6FB53EC192B02F034FC2D
:101D000022462B4602F006FD0446B7F93A000D467E
:101D100002F0FCFB53EC182B02F026FC22462B466B
:101D200002F0F8FCB7F93CC000EE10CAB8EEC00AE9
:101D3000044620EE2E0A0D4610EE100A02F0C2FBF9
:101D400022462B4602F0E6FC0446B7F93E000D465B
:101D500002F0DCFBDDE9042323F0004302F004FC85
:101D600022462B4602F0D6FC044600980D46024659
:101D7000B0F90010B2F9040000EE101AB8EEC00A73
:101D800000EE900AB2F9080001EE100AB8EEC11A8E
:101D900020EE2D0AF8EEE00A01EE0DFA00EECF0A71
:101DA0002EEE000A10EE100A02F08CFB22462B46A3
:101DB00002F0B0FC02F0DEFDB88142F267110FFACA
:101DC00088F0884203DB42F26610F88004E041F6B6
:101DD00096118842B8BFF9800FFA89F241F60601E0
:101DE00048468A42B8BF084605DB41F6D7718A42A9
:101DF000A8BF41F6D6703881B7F90A00B042BEF6E6
:101E000039AC3046FEF73CBC588D0000341E000053
:101E1000688D0000441E0000581E00006C1E00006B
:101E2000801E0000941E0000A41E0000B41E0000CE
:101E3000808D00006D6F746F725F495F7961773AD2
:101E400025663F0073746565725F445F70697463F3
:101E5000683A25643F0000006D6F746F725F445FE5
:101E600070697463683A25643F00000073746565A7
:101E7000725F445F726F6C6C3A25643F0000000033
:101E80006D6F746F725F445F726F6C6C3A25643F64
:101E90000000000073746565725F445F7961773A92
:101EA00025643F006D6F746F725F445F7961773AAC
:101EB00025643F006D6F746F725F445F686569678A
:101EC00068743A25643F000044495372656D6F742D
:101ED000653F0000647574795F75702E2E2E3F008B
:101EE000647574793A25643F000000006475747964
:101EF0005F646F776E2E2E2E3F000000647574793C
:101F00005F627265616B2E2E2E3F00006669785FFE
:101F1000686967685F6D6F64655F6F66663F000044
:101F200072656D6F74655F6D6F64655F6F66663F48
:101F3000000000006669785F686967685F6D6F64BC
:101F4000655F6F6E3F0000006669785F686967686B
:101F50005F6D6F64655F6661696C3F006F6E5F61A6
:101F60006C72656164793F006F66665F616C726573
:101F70006164793F00000000F0B43E4B1C6844F4FB
:101F8000785405001C603BD0401E0F2838D8DFE88D
:101F900000F0080B0E1114171A1D2023262C292FD0
:101FA0003235042100222BE00421022228E0042102
:101FB000042225E00421082222E004210A221FE055
:101FC00004210C221CE004210E2219E0042110221D
:101FD00016E00421122213E00421142210E004214F
:101FE00018220DE004211C220AE004211D2207E032
:101FF00004211E2204E004211F2201E003211622F5
:102000001D481E4F8024047001F0070505711C4C0B
:102010002568266846F47F062660DF6002F01F030D
:10202000256043F04003437183799C06FCD5837996
:102030005C06FCD5002303708379C3F38103032B73
:10204000FAD1D2B21032322010FB02F202EBD2727D
:10205000C9B20C485210491C92FBF1F10170027890
:10206000094B82FB03435B1003EBD3734370F0BC5B
:10207000704700BF3880044000400640000027043D
:1020800000F001402003FF1F6766666610B500225E
:1020900001214D2002F0F6F8002201214E2002F02D
:1020A000F1F8002201214F2002F0ECF8002201217A
:1020B000502002F0E7F8DFF81443206840F4803045
:1020C00020603220216821F48041216000F0F4F882
:1020D000206840F480402060AE2000F085F80020A9
:1020E00000F082F8102000F07FF8402000F07CF82B
:1020F000812000F079F8CF2000F076F8A12000F0E0
:1021000073F8C82000F070F8A62000F06DF8A82041
:1021100000F06AF83F2000F067F8D32000F064F880
:10212000002000F061F8D52000F05EF8802000F07B
:102130005BF8D92000F058F8F12000F055F8DA20CB
:1021400000F052F8122000F04FF8DB2000F04CF8BD
:10215000402000F049F8202000F046F8022000F06E
:1021600043F88D2000F040F8142000F03DF8A42042
:1021700000F03AF8A62000F037F8AF2000F034F86D
:10218000002000F068F8B02000F02EF8102000F0D9
:102190002BF8BDE81040002026E0000010B4DFF866
:1021A0002C22116841F4005111600821136823F4B6
:1021B00080331360491E030604D5146844F40044B8
:1021C000146003E0136823F400431360146854F4AC
:1021D0008034146000BF1368400023F4803300296A
:1021E0001360E7D110BC704710B4DFF8E02111682C
:1021F00021F4005111600821136823F48033136027
:10220000491E030604D5146844F40044146003E036
:10221000136823F400431360146854F4803414608A
:1022200000BF1368400023F4803300291360E7D116
:1022300010BC704710B50446A1F15000C0B2FFF7C2
:10224000D3FF200940F01000FFF7CEFF04F00F008D
:10225000BDE81040C8E770B505460026A6F150005D
:10226000C0B2FFF7C1FF0120FFF7BEFF1020FFF74C
:10227000BBFF84242846FFF791FF641EFAD1761C29
:10228000F0B20828EADB70BD38B50025A5F1500092
:10229000C0B2FFF7A9FF0120FFF7A6FF1020FFF74C
:1022A000A3FF84240020FFF779FF641EFAD16D1C80
:1022B000E8B20828EADB31BD70472DE9F041044659
:1022C0000D469046002725E0A0F12006E0B27F28C9
:1022D000A4BF00246D1CE9B2E0B2FFF7ABFFF6B279
:1022E000DFF8EC0006EB460100EB4106A41D307858
:1022F000FFF754FF7078FFF751FFB078FFF74EFFFC
:10230000F078FFF74BFF3079FFF748FF7079FFF760
:1023100045FF7F1CF8B218F800000028D4D1BDE8B2
:10232000F0812DE9F04104460D469046002746E035
:10233000A0F120063606E0B27928A4BF00246D1C67
:10234000E9B2E0B2FFF776FFDFF8880000EB16563F
:102350007F1C3078FFF722FF7078FFF71FFFB078FF
:10236000FFF71CFFF078FFF719FF3079FFF716FF32
:102370007079FFF713FFB079FFF710FFF079FFF7DF
:102380000DFF691CC9B2E0B2FFF754FF307AFFF7C6
:1023900005FF707AFFF702FFB07AFFF7FFFEF07AD1
:1023A000FFF7FCFE307BFFF7F9FE707BFFF7F6FED0
:1023B000B07BFFF7F3FEF07BFFF7F0FE0834F8B2D6
:1023C00018F800000028B3D1BDE8F08180F00F407C
:1023D000948D0000B8830000484909690A79130602
:1023E000FCD5C871704730B4454A904206D1454B80
:1023F000DC6844F48064DC60434C2EE0434B98423C
:102400000AD1404BDC6844F40064DC604FF4407354
:102410003F4C2360636024E03E4B984206D1394B29
:10242000DC6844F48054DC603B4C16E03B4B984243
:102430000AD1344BDC6844F40054DC604FF4407340
:10244000334C6363A3630CE0354B984209D12D4BA9
:102450001C6844F480641C60324C4FF44073636029
:1024600023609042C37803F0F303C37083788370D2
:102470001BBF264A90422C4B2C4B2D4A1B785343B2
:102480000C01B3FBF4F294B2B4F5005FA8BF41F6BF
:10249000FF72047815042D0E04F0E00405F01F050A
:1024A0002C4304704270B3FBF1F1847AA1EB02116A
:1024B00004F0E00401F01F010C438472017C41F040
:1024C00088010174C17841F02C01C170002030BC3A
:1024D0007047002A00D1704730B40B78521E04793F
:1024E0002506FCD5491C002AC371F6D130BC7047C3
:1024F00001798A06FCD5C07970470000C801FF1F2A
:1025000000A00640288004403890044000B00640F7
:102510000CB0044000C0064008C0044000D0064093
:1025200000A00E4060D004402003FF1F2103FF1FC6
:1025300040420F0080B501220121112001F0A2FECE
:1025400001220121402001F09DFE012201216F2086
:1025500001F098FE012201219A2001F093FE012250
:102560000121522001F08EFE01220121532001F0B1
:1025700089FE002002BD000005281DD8DFE800F01C
:1025800003070B0F131700220121112012E0002274
:10259000012140200EE0002201216F200AE00022EC
:1025A00001219A2006E000220121522002E00022AF
:1025B0000121532001F066BE7047000005281DD898
:1025C000DFE800F003070B0F131701220121112090
:1025D00012E00122012140200EE0012201216F20A2
:1025E0000AE0012201219A2006E001220121522065
:1025F00002E001220121532001F044BE7047074B45
:10260000195C491C1954C9B201EBD1725208B1EBE3
:10261000420108BFFFF7B0BFD0E700000C03FF1F67
:1026200080B501220321342001F02CFE0122032178
:10263000352001F027FE01220321362001F022FE81
:10264000002002BD80B500220121892001F01AFE80
:10265000012200218A2001F015FE02480168884706
:10266000002002BDB401FF1F2DE9FC4702F0A6F9CE
:102670006A467521D02002F093FA9DF8001068296F
:1026800006D00FF2C01001F0E9FD0FF2C01001E01A
:102690000FF2CC1001F0E2FD80226B21D02002F07D
:1026A0009EFA0446642001F057FE00226B21D020E0
:1026B00002F095FA041918221B21D02002F08FFA9B
:1026C000054608221C21D02002F089FA06464FF464
:1026D0007A7000F04AF8074602221A21D02002F050
:1026E0007EFA804600223821D02002F078FA814616
:1026F00000226A21D02002F072FA2C193419824685
:102700003C1901226B21D020444402F068FA4C4469
:102710005444041900226C21D02002F060FA0419FC
:10272000E4B234B90FF2481001F098FD0020BDE882
:10273000F6870120BDE8F687D02002F050BABC2809
:10274000A8BF01220FDA6228A8BF02220BDA2A28CA
:10275000A8BF032207DA1428A8BF042203DA0A2834
:10276000ACBF052206221A21E6E710B50446B0F5F3
:102770007A7FC8BF4FF47A7402DC0428B8BF0424FF
:102780004FF47A7393FBF4F35A1ED2B21921D0207E
:1027900002F025FA6008BDE81040D0E7F8B505461C
:1027A0000E4614461F4602F01EF96D06280E02F072
:1027B000A7F902F04CF980B9304602F0A1F902F015
:1027C00046F9200008D017F8010B02F099F902F041
:1027D0003EF910B9641EF6D12FE002F01BF901207A
:1027E000F2BDF8B504460D4616461F4602F0FBF84A
:1027F0006400E0B202F084F902F029F900B1ECE7DC
:10280000284602F07DF902F022F902F0ECF844F0DB
:102810000104E0B202F074F902F019F930000CD0B2
:10282000F0B201280CBF0020012002F092F907F855
:10283000010B761EF0B20028F2D102F0EBF8002076
:10284000F2BD000049443D2523583F004D50553608
:10285000303530206973206661696C213F000000CB
:102860004D505536303530206973204F4B213F0095
:102870004D505520736574206973204F4B213F00E4
:1028800038B5DFF8304894F82410A9B1002819BFF2
:1028900002218DF8001000228DF800202068656864
:1028A000C17B28786B460122FFF778FFD8B99DF8E5
:1028B00000006074002032BDA17AA1B130B1607C0B
:1028C0000028F7D101218DF8001002E000228DF8D8
:1028D00000206B462068C17B606800780122FFF70A
:1028E0005DFF0028E3D034E230B583B080208DF85E
:1028F000040001ABDFF8BC4720686568817C28785C
:102900000122FFF74BFF002840F0B580642001F062
:1029100023FD00208DF8040001AB2068817C6068F5
:1029200000780122FFF73AFF002840F0A4802068D9
:10293000817D6068007801AB0622FFF752FF002816
:1029400040F0998001A89DF80910C278407889006C
:10295000520001F0040102F00202114300F00100F4
:10296000014308D0012920D0022920D0DFF84807F0
:1029700001F074FC7FE02068C1786068007801ABEA
:102980000122FFF72EFF002875D19DF8040010F0FA
:102990000F0004D1DFF8BC0701F060FC6BE00428F5
:1029A00005D100BF48A001F059FC012000E0002043
:1029B000E07404F12205FF20A07220726072E072C0
:1029C0002074A0744FF6FF71012020732870E181FC
:1029D00000206870A0820C2104F1160002F022F998
:1029E00000206880A8804FF4FA6000F0B5F9002854
:1029F00041D1022000F002FA00283CD1A07A002840
:102A000039D0E07A032103288DF800100BD020681C
:102A10008178606800786B460122FFF7BFFE50BBEB
:102A20009DF80000E072A07A28B3A87818BB207D3A
:102A300010B1002000F058F813208DF800006B460C
:102A400020684178606800780122FFF7A7FE90B9FE
:102A50009DF800104FF47A70491C90FBF1F2E2816E
:102A6000E089400800F000FA002000F09FFA10B959
:102A700000F072FB00B1B3E040208DF800006B461F
:102A80002068817C606800780122FFF787FEB8B972
:102A90009DF8000000F0BF0020733F2120688DF8F2
:102AA00000106B46C17C606800780122FFF776FE5B
:102AB00030B9A07200212175322001F04DFC01E0F7
:102AC0000020A07290E0000048616C662073656E83
:102AD0007369746976697479207061727420666FA5
:102AE000756E642E0A0000007CB50646292E68DA51
:102AF0003000DFF8C0450DF1020514D1002000F0D0
:102B0000A9FB00208DF802000721206869700DF1F3
:102B10000203817C606800780222FFF73FFE0028F4
:102B20004FD1207576BD012000F094FB20208DF858
:102B30000200012EA07A09D100210028697031D04D
:102B4000E17A06208DF8000006291EE0062E09DA3B
:102B500001210028697025D0E17A06208DF8000057
:102B6000062912E0142E08DC02216970D0B1E17A46
:102B700005208DF80000052907E00321697088B160
:102B8000E17A04208DF8000004290BD020688178B8
:102B9000606800786B460122FFF700FE10B99DF8CF
:102BA0000000E0720DF102036878800140F0070038
:102BB000687002222068817C60680078FFF7EEFD73
:102BC00000B10AE00820A0720021012020752173C5
:102BD000002000F0EBF9002076BD4FF0FF3076BD0D
:102BE0004FF0FF3003B030BD002003B030BD38B52A
:102BF000DFF8C044A07A002800F0AB8000212068F4
:102C000065688DF800106B46C17B28780122FFF7BC
:102C1000C5FD002840F09D802068417960680078FB
:102C20006B460122FFF7BAFD002840F09280206831
:102C30000179606800786B460122FFF7AFFD00283C
:102C400040F0878094F82400002843D00C212068AD
:102C50008DF800106B460179606800780122FFF75B
:102C60009DFD002875D1322001F076FBC0208DF843
:102C700000006B46A17AC80744BFE0218DF8001020
:102C800020680179606800780122FFF787FD00283D
:102C90005FD1607C002819BF02218DF8001000224E
:102CA0008DF800202068C17B606800786B460122A7
:102CB000FFF774FD00284CD18DF800006B462068AA
:102CC0004179606800780122FFF768FD002840D153
:102CD000002032BD04208DF800006B462068017989
:102CE000606800780122FFF759FD90BBA07C10B905
:102CF000A07AC10703D440228DF8002002E06021B1
:102D00008DF800106B462068017960680078012218
:102D1000FFF744FDE8B9322001F01EFB607C411E44
:102D20008941C943C90F20688DF800106B46C17BEB
:102D3000606800780122FFF731FD50B920684179C1
:102D40006068007804F110030122FFF727FD0028D6
:102D5000BED04FF0FF3032BD1CB5DFF8EC45A17A94
:102D600041B3FA2809D0B0F5FA7F10D0B0F57A7FD8
:102D70000FD0B0F5FA6F10D01CE000208DF80000E5
:102D8000207A9DF80010B0EBE10F0AD117E008207F
:102D9000F4E710218DF80010F2E718228DF80020DA
:102DA000EEE720688179606800786B460122FFF7C2
:102DB000F5FC00B154E09DF80000C008207200202E
:102DC00016BD0000DFF8EC124A7A032A13D8DFE8B8
:102DD00002F0020B0E1002230370C97C11B10278BD
:102DE000520002700020704704220270F5E70823A9
:102DF000F2E71022F9E74FF0FF3070471CB5DFF81B
:102E00004845A17A29B3022806D004280ED0082804
:102E10000ED0102810D01CE000208DF80000607A41
:102E20009DF80010B0EBE10F0AD117E00820F4E79D
:102E300010218DF80010F2E718228DF80020EEE73F
:102E40002068C179606800786B460122FFF7A6FC14
:102E500000B105E09DF80000C0086072002016BDBA
:102E60004FF0FF3016BD00001CB5DFF8DC44A17A3E
:102E700039B3BC28A8BF01200ADA6228A8BF022003
:102E800006DA2A28A8BF032002DA142803DB04206C
:102E90008DF8000007E00A28A7BF05218DF8001073
:102EA00006228DF80020E07A9DF8001088420CD0B0
:102EB00020688178606800786B460122FFF76EFC1D
:102EC00000B1CDE79DF80000E072002016BD38B5D6
:102ED000784C0546A07A00283AD094F824000028BF
:102EE00036D1207DD8B1280005D0292D03DAE8B2EB
:102EF000FFF7FAFD39E0002000F0ACF9002120686E
:102F00008DF8021007228DF803200DF10203817C59
:102F1000606800780222FFF741FC00B92075042D9B
:102F2000B8BF042504DBB5F57A7FC8BF4FF47A75C6
:102F30004FF47A7090FBF5F0411E20688DF8001078
:102F40006B464178606800780122FFF727FC00B1EA
:102F5000FFE69DF800104FF47A70491C90FBF1F2E7
:102F6000E281E0894008FFF77FFF002032BD0000CA
:102F7000DFF8D4134A7A032A17D8DFE802F0020CEC
:102F800010134FF480430380C97C11B102885208AA
:102F900002800020704741F69C720280F4E74FF4F3
:102FA0008053F0E74FF40062F7E724E7F8B5414CAF
:102FB00000F0FE0694F82400002508B10020F2BDC0
:102FC000A07AC8B1277C30402074B04218BF4FF0BF
:102FD000FF35300004BF207D002805D00120FFF719
:102FE0004FFC26B92846F2BDFFF74AFCFAE7FFF787
:102FF000FEFD0028F6D027744FF0FF30F2BD7CB5FF
:10300000044614F0700F03D001208DF8000007E093
:10301000200019BF00218DF8001040228DF80020FB
:10302000244D28686E68817C30786B460122FFF75A
:10303000B5FB68BB9DF8000000F0BF0028730021BD
:103040008DF8001060065CBF04218DF80010A0060A
:1030500005D49DF8001041F002018DF80010E00643
:1030600005D49DF8001041F001018DF800102007F3
:1030700005D49DF8001041F038018DF800106B4622
:103080002868C17C686800780122FFF787FB10B1CF
:103090000020A872A1E520001EBF082C002000F02F
:1030A000D9F800202875AC72322001F055F90020C3
:1030B00076BD00001C01FF1F249100002DE9FC419A
:1030C000A14F054697F8240000281CBFB87A0028B5
:1030D0000C46164633D03868817A786800786B469B
:1030E0000222FFF77EFB50BB9DF800009DF8011007
:1030F00041EA0028A84502DA002030701FE0786815
:1031000041884908414511DA39680078497C6B46A5
:103110000122FFF766FB90B99DF80000C10605D5B6
:10312000FFF765FD6FF00100BDE8F6813868C17AF0
:10313000786800782346EAB2FFF753FB18B14FF0E6
:10314000FF30BDE8F68198FBF5F0401E307000209E
:10315000BDE8F6814C91000038B57B4D0446A87C53
:10316000A0423BD0686829680078097922006B4644
:1031700036D00122FFF735FB00286AD19DF8000008
:1031800000F0DF008DF800006B4628680179686860
:1031900000780122FFF702FB00285AD1032001F03A
:1031A000DBF802218DF8001005F12201087810B13A
:1031B00082228DF80020487828B19DF8000040F068
:1031C00030008DF800006B462868017D6868007843
:1031D0000122FFF7E3FA00283BD1AC74002032BD96
:1031E0000122FFF7FEFA002833D1A87AC1079DF823
:1031F00000004CBF40F0200000F0DF008DF8000020
:103200006B4628680179686800780122FFF7C6FAE2
:10321000F8B9032001F0A0F805F122010878002890
:1032200019BF80228DF8002000238DF800304878E7
:1032300028B19DF8000040F030008DF800006B468A
:103240002868017D686800780122FFF7A7FA002846
:10325000C3D07EE57CB53C4E06F122050446687875
:10326000A04201D1002076BD200019BF30218DF889
:10327000001000228DF80020B07C28B19DF80000DD
:1032800040F002008DF80000287828B19DF8000079
:1032900040F080008DF800006B463068017D70685A
:1032A00000780122FFF77AFA08B1FFF796BC6C703C
:1032B00076BD00007CB5244D6E680446307801ABC5
:1032C00004220D21FFF78DFA08B1072076BD01A970
:1032D0009DF804304D78CA78DB08ED0803F01C0334
:1032E000C2F3011005F01C050343C2F3810002F094
:1032F0000302054388788DF80030C00800F01C00F8
:1033000002438DF802208DF801506A4603219FED9B
:10331000460ADFED460A107810B99FED451A0AE01B
:10332000B0EE601A01E021EE001A1078401E107015
:10333000C0B20028F7D184ED001A241D521C491E8A
:10334000E9D1002076BD00001C01FF1FF8B5DFF8B1
:103350005C7A7F6806460C4638786B4603220D215E
:10336000FFF73FFA002508B10720F2BD9DF80110D4
:103370009DF8000001F01F018DF8011000F01F0002
:103380009DF802108DF8000001F01F018DF8021069
:103390006A4600219FED270AF2EE040A9FED261AE5
:1033A000DFED261AB3EE092ADFED252A33682068FF
:1033B0001F1A48BF7F4203EE107AB8EEC33A107866
:1033C00023EE223AD8B1F0EE423A01E063EEA13AA0
:1033D0001378581E1070C0B20028F7D183EE233A3C
:1033E000FFEE003A33EE233AB0EEC33AB4EE413A80
:1033F000F1EE10FA10DB0120884005430CE0B4EE3A
:10340000603AF1EE10FA04D4B4EE403AF1EE10FA5C
:1034100002DB01238B401D43491C241D361D521C19
:103420000229C3DD2846F2BD1D5A843F7B14AE3EFF
:10343000000000000100D2422A5C0F3E54E3853FA9
:10344000000080372DE9F84483B005460E46012080
:103450008DF800000021DFF85479D7F804C08DF80A
:10346000011014463868817C9CF800006B460222EB
:10347000FFF794F9002840F09581C82000F06CFF18
:1034800000208DF800006B463868C17B78680078B2
:103490000122FFF783F9002840F0848138684179E0
:1034A000786800786B460122FFF778F9002840F031
:1034B00079813868817C786800786B460122FFF753
:1034C0006DF9002840F06E813868C17D7868007819
:1034D0006B460122FFF762F9002840F063813868EB
:1034E0000179786800786B460122FFF757F90028C8
:1034F00040F058810C208DF800006B463868017947
:10350000786800780122FFF749F9002840F04A81E5
:103510000F2000F021FFB86A417A8DF800106B4649
:1035200038688178786800780122FFF737F9002839
:1035300040F03881B86A017A8DF800106B4638681F
:103540004178786800780122FFF728F9002840F0D8
:103550002981B86A807A210018BF40F0E0008DF818
:1035600000006B4638688179786800780122FFF79F
:1035700015F9002840F0168120001DBFB86AC17AF5
:1035800041F0E00118218DF800106B463868C179D0
:10359000786800780122FFF701F9002840F00281E5
:1035A00014B1C82000F0D8FE40208DF800006B4612
:1035B00038680179786800780122FFF7EFF8002871
:1035C00040F0F08078208DF800006B463868417933
:1035D000786800780122FFF7E1F8002840F0E280E7
:1035E000322000F0B9FE00208DF800006B463868EC
:1035F0004179786800780122FFF7D0F8002840F080
:10360000D1803868817A786800786B460222FFF7AB
:10361000E8F8002840F0C6809DF800009DF80110F1
:1036200041EA00214AF6AB20484300224001AA604B
:103630006A604FEA106A2A60B2607260BAF1010FE4
:10364000326049DB54463868C17A786800786B4646
:103650000C22FFF7C6F8002840F0A4809DF8021065
:103660009DF803009DF804209DF800309DF801C0EE
:1036700040EA01209DF8051041EA022132684CEA37
:10368000032302FA83F23260641E7368B26803FA9D
:1036900080F002FA81F17060B1609DF808309DF809
:1036A00009009DF80A209DF80B109DF807C040EA1C
:1036B000032041EA02219DF806302A684CEA0323E0
:1036C00002FA83F22A606B68AA6803FA80F002FAB1
:1036D00081F16860A960B6D12868C117090441EA80
:1036E000104100048322002301F0A0FA5246002377
:1036F00001F09CFA286083226868C117090441EA36
:1037000010410004002301F091FA5246002301F019
:103710008DFA68608322A868C117090441EA104144
:103720000004002301F082FA5246002301F07EFAE1
:10373000A8604FF400623068C117090441EA1041E3
:103740000004002301F072FA5246002301F06EFAE1
:1037500030604FF400627068C117090441EA1041FB
:103760000004002301F062FA5246002301F05EFAE1
:1037700070604FF40062B068C117090441EA10415B
:103780000004002301F052FA5246002301F04EFAE1
:10379000B0600128A6BF00F17F4000F57F0000F572
:1037A000803004E04FF0FF3004B0BDE8F084B0603A
:1037B00004B00020BDE8F0842DE9F84FDFF8EC6597
:1037C0008B4696F824108AB0824629B1002000F07A
:1037D0008AF94FF0010801E04FF00008307A032821
:1037E0000FD8DFE800F00B0805024FF4FA690AE091
:1037F0004FF47A7907E04FF4FA7904E04FF0FA09D0
:1038000001E04FF00009707A03280DD8DFE800F0DE
:1038100008060402102404E0082402E0042400E066
:103820000224F07C00B16400F07A401E052810D814
:10383000DFE800F00D0B0907050305270AE00A275A
:1038400008E0142706E02A2704E0622702E0BC27EC
:1038500000E0002796F8240010B9F089ADF80200C6
:10386000B17A327C8DF801108DF800205946002283
:103870005046FFF7E7FD28B1002259465046FFF7B2
:10388000E1FD58B9012201A904A8FFF7DBFD40B111
:10389000012201A904A8FFF7D5FD10B14FF0000ADD
:1038A00052E007A8FFF706FD0025002101AA07A89E
:1038B0009FEDA80ADFEDA80A9FEDA81ADFEDA81A70
:1038C000DBF800C01368D0ED002ABCEB030348BF4F
:1038D0005B4202EE103AF5EE402AB8EEC22AF1EE53
:1038E00010FA22EE212A0DD082EE222AFFEE002AC3
:1038F00032EE222AB0EEC22AB4EE412AF1EE10FADC
:103900000DDB09E0B4EE602AF1EE10FA04D4B4EE57
:10391000402AF1EE10FA02DB01238B401D43491CC3
:10392000001D121D02290BF1040BC9DD04A950462C
:10393000FFF70CFD4FF0000AC0B208B94FF0010AC2
:10394000EDB20DB94AF0020AFF2030727072F072C7
:10395000B07230744FF6FF7101203073F181484628
:10396000FFF7FAF9E0B2FFF749FA3846FFF77CFAB9
:10397000BDF80200FFF7ABFA9DF80100FFF73FFB2F
:103980009DF80000FFF712FBB8F1000F1CBF0120EB
:1039900000F0A9F850460BB0BDE8F08FF8B50E4620
:1039A00014001EBFDFF80454A97A00291CD08DF83A
:1039B0000100010A68688DF800109DF80110428925
:1039C00089198A4210DB2F680078397E6B46022203
:1039D000FEF7E4FE40B92868417D68680078234618
:1039E000F2B2FEF7DBFE08B14FF0FF30F2BDF8B5E2
:1039F0000E4614001EBFDFF8B453A97A00291CD06C
:103A00008DF80100010A68688DF800109DF801101A
:103A1000428989198A4210DB2F680078397E6B460B
:103A20000222FEF7BBFE40B92868417D6868007835
:103A30002346F2B2FEF7D5FE08B14FF0FF30F2BDDB
:103A40002DE9F04FDFF864630C4696F8251085B039
:103A50009246994631BB2CB300258046ADF8020052
:103A60000DE001AAB9B22846FFF7C1FFD0B9BAB23A
:103A700001A9584601F014FAB8B97D19ADB245450F
:103A80001DDAA8EB05001128AEBF1027BDF80270A3
:103A90007F1B04EB050B5A46B9B22846FFF77EFFA1
:103AA0000028DED04FF0FF301AE06FF0010017E081
:103AB000012086F82500A6F82690002010E04FEAA5
:103AC0001A2130688DF800108DF801A06B46817EB8
:103AD000706800780222FEF761FE0028E8D0E1E776
:103AE00005B0BDE8F08F38B5DFF8C04204F1240519
:103AF000297881422CD0D8B1687808B9FFF729B964
:103B00000020FEF7BDFE0020FFF726FB6888FFF7C8
:103B1000DEF900208DF800006B4660680078012215
:103B20002321FEF73BFE01202870FEF7A9FE0DE0E1
:103B3000FEF7A6FE207C8DF800006B4660680078DA
:103B400001222321FEF72AFE00202870FFF74FF8FC
:103B5000002032BD3433733F9A99993E2A5C0F3E60
:103B60000000803738B586B0694603A8FFF724FE09
:103B7000032858D18D4D287A03280ED8DFE800F0AD
:103B80000B0805029FED8A0A07E09FED8A0A04E010
:103B90009FED890A01E09FED890ADDED030AF8EE49
:103BA000E00A60EE800AFDEEE00A03A8CDED030A0C
:103BB000D0ED010A90ED021AF8EEE00AB8EEC11A53
:103BC00060EE800A21EE000AFDEEE00ABDEEC00ABA
:103BD000C0ED010A80ED020A01F01AFA687A0328A2
:103BE00011D8DFE800F00B0805024FF4006407E08D
:103BF0004FF4805404E041F69C7401E04FF480449B
:103C0000E87C00B164080098A4B260430090684664
:103C100041688268614341605443846001F068FAFE
:103C2000002007B030BD012007B030BD38B50446D4
:103C300000F00DF80546E01C00F009F845EAC00563
:103C4000A01D00F004F845EA8015A8B232BD90F935
:103C50000010002901DD0020704701D504207047C5
:103C600090F90110002901DD0120704701D50520E0
:103C7000704790F90200002801DD0220704701D54D
:103C80000620704707207047704738B500F096FE51
:103C9000FEF72AFE002840F0878001208DF8000002
:103CA0006B46A54C2068817C606800780122FEF795
:103CB00075FD00283BD19DF8000000F0BF00207387
:103CC000002120688DF800106B46C17C6068007888
:103CD0000122FEF763FD50BBFFF7BCFA7820A0720B
:103CE00000212175322000F037FB7820FFF75EF9C4
:103CF00005464FF47A7000F02FFBEDB2DDB9A07AE3
:103D000098B194F8240080B9207D10B10020FEF70E
:103D1000EBFE09208DF800006B4620684178606852
:103D200000780122FEF73AFD38B1032032BD0020B1
:103D3000A072012032BD022032BD9DF800104FF468
:103D40007A70491C90FBF1F2E281E0894008FFF7AC
:103D50008BF801F0D9F8C0B208B1042032BD04F1EB
:103D60002C00FFF763FF01F0D8F8C0B208B10520BE
:103D700032BD40F2731001F042FAC0B208B1062021
:103D800032BD642001F015FAC0B208B1072032BD7F
:103D9000FFF7E8FE08B1082032BD0120FFF7A3FEBF
:103DA000C0B208B1092032BD002032BD1C01FF1F86
:103DB0003333834133330342000083420000034323
:103DC000F8B52DED0A8B8CB0044602A801900E4682
:103DD00015460DF10A07009703AB04AA08A90AA823
:103DE00001F0A1FB10B10CB00120A1E0BDF90A0067
:103DF000C10540F19B80DDED040A9DED051A9FEDA4
:103E00004F0AF8EEE00AB8EEC11A20EE80BA61EE71
:103E100000BADDED060A9DED071AF8EEE00AB8EEED
:103E2000C11AB8EE002A20EE80CA61EE00CAF0EE98
:103E3000001A2BEE828A2BEE219A28EE2C0A09EE2C
:103E40000C0A10EE100A00F03DFB41EC100B01F0E3
:103E500062FC9FED3BAB53EC102B51EC1A0B00F0C6
:103E600083FB01F067FCB0EE002A6CEE029A28EEAC
:103E70002B2A206009EECC2AB7EE000A32EE000AA7
:103E800010EE100A00F01EFB29EEAC0A41EC110BFB
:103E900009EE2B0AB0EE418AF0EE618A10EE100AAC
:103EA00000F010FB41EC100BB0EE481AF0EE681A6F
:103EB00001F037FC53EC102B4FF06630224900F034
:103EC00053FB01F037FC2BEE0B2A0BEEAB2A3060D4
:103ED0000CEE4C2A0CEEEC2A12EE100A00F0F2FA6C
:103EE0002BEE8C2A0BEE2C2AB0EE000A41EC110BC3
:103EF00022EE000AB0EE419AF0EE619A10EE100A3E
:103F000000F0E0FA41EC100BB0EE491AF0EE691A3D
:103F100001F007FC53EC102B51EC1A0B00F024FBC2
:103F200001F008FC28600CB0002001E00CB0022079
:103F3000BDEC0A8BF2BD00001C01FF1F00008030A9
:103F40006666666666A64C4066A64CC02DE9F041E2
:103F500004460D4690461F4600F060F806460122D2
:103F60002946204600F070F899499A48097841435B
:103F70000A0CB2FBF8F080B2002200E0521C20FADA
:103F800002F3012BFADAD0B2082821DAD140B1FBD2
:103F9000F8F0914980B241F8260002F0070242F0A1
:103FA0000802226004EBC5012823CA6822F004023B
:103FB000CA60CB60A0600022401C47438748E2648F
:103FC00087FB0030401300EBD07080B20861626064
:103FD000BDE8F08170B4824B984208BF00230FD037
:103FE000804B984208BF04230AD07F4B984208BFF9
:103FF000082305D07D4B98420CBF0C234FF47F73F0
:10400000754C7B4EE3585B1C5A430025E2FB06656A
:1040100000EBC1002A0C026170BC704770498842F5
:1040200001D1002070476F49884201D101207047BB
:104030006D49884201D1022070476C49884201D104
:1040400003207047FF207047654B984208BF00204F
:104050000ED0644B984208BF012009D0624B9842B1
:1040600008BF022004D0614B98420CBF0320FF2000
:10407000002A00F09180032800F2A880DFE800F019
:10408000023446575B48C26842F080720729C2601A
:1040900000F29C80DFE801F004080C1014191E23C4
:1040A0004FF48060544952E04FF48062524853E02C
:1040B0004FF48061504854E04FF480614E4855E021
:1040C0004E484FF44071016070474D494FF4806293
:1040D0000A6070474A4A4FF4806050607047484910
:1040E0004FF48060886070474248C26842F00072B6
:1040F000C26011B1012905D0704740494FF44070AA
:10410000486170474FF440703C4953E03948C268F9
:1041100042F08062C26011B1012904D070474FF4AF
:104120004070384913E04FF44072364814E031488B
:10413000026842F000720729026047D8DFE801F008
:1041400004090E13181D22274FF4C0602E49086081
:1041500070474FF4C0622C48426070474FF4C06112
:104160002948816070474FF4C0612748C16070479B
:1041700025484FF4C0610161704723484FF4C06186
:10418000416170471C484FF44071416270471A48C2
:104190004FF4407181627047012802D002280BD091
:1041A00070471448C16841F00071C1604FF4E0608D
:1041B00012494861886170470E48C16841F08061CA
:1041C000C1604FF4C0610F4801604160704700005A
:1041D0002103FF1F40420F00F002FF1F89B5F814B2
:1041E000008003400090034000A0034000900B407B
:1041F00047ACC5A73080044004B004401C90044084
:1042000014C0044048A0044014D0044010B40F4A25
:10421000136843F4000313600D4A0E4B1468A4089E
:10422000A400146003EB00130B4C227851434FF4AD
:104230007A7041431960D96841F00101D9609868EA
:1042400040F00300986010BC704700003C800440C0
:1042500000700340007103402103FF1F0EB4C0B57E
:10426000024603A800210190009101AB01210448FE
:1042700078440C3001F092FA06BC5DF810FB00BFE8
:10428000CF500000324BF0B41D684FF40076440963
:10429000A64035431D6000F01F002E4D05EB840342
:1042A0005E6956F8203023F4E06346F8203056F873
:1042B000203043F4807346F8203056F820700F43C6
:1042C00046F8207055F8243001240029596904FA71
:1042D00000F014BF014381435961002A19BF1968D6
:1042E00008431A6822EA00001860F0BC7047194BB6
:1042F000420953F82220002900F01F004FF0010C62
:1043000051690CFA00F014BF084321EA0000506123
:104310007047104B420900F01F0053F822204FF065
:10432000010C0CFA00F0002919BF1168084313684A
:1043300023EA000010607047014606484A0950F819
:104340002230186901F01F01C84000F001007047D9
:10435000388004408C01FF1FFFE7010013D00A4999
:104360000A6842F001020A60002308490B60886075
:104370000122052048600A6008680206FCD508682A
:104380004008400008607047388004400000044046
:10439000F8B5012201215120FFF774FF4FF47A7024
:1043A000FFF7DAFF002201215120FFF76BFF444C99
:1043B00041F67E552A4600212046FFF70BFE41F6C6
:1043C000EE36324601212046FFF704FE40F6AC5798
:1043D0003A4602212046FFF7FDFD3A4603212046DA
:1043E000FFF7F8FD42F2661200212046FFF7F2FDCA
:1043F00041F6060201212046FFF7ECFD4FF47A70EA
:10440000FFF7AAFF2A4600212046FFF7E3FD3246C8
:1044100001212046FFF7DEFD4FF47A70FFF79CFF85
:1044200041F6961200212046FFF7D4FD41F6D672E0
:1044300001212046FFF7CEFD4FF47A70FFF78CFF85
:104440002A4600212046FFF7C5FD324601212046BD
:10445000FFF7C0FD4FF47A70FFF77EFF41F244652D
:104460002A4602212046FFF7B5FD2A4603212046B1
:10447000FFF7B0FD4FF47A70FFF76EFF41F2D4758D
:104480002A4602212046FFF7A5FD2A4603212046A1
:10449000FFF7A0FD4FF47A70FFF75EFF01220121C4
:1044A0005120FFF7EFFE4FF47A70FFF755FFBDE89C
:1044B000F840002201215120FFF7E4BE0000000077
:1044C00000800340C0F3C75181B1FF2906D0C1105D
:1044D000400721F0E04101F16051704741020CBFFB
:1044E00040F4E0016FF000410020704700F000410F
:1044F00000020AD0B0FA80FC00FA0CF001F1605121
:10450000A1EB0C5101EBD02140057047C11768B1F8
:104510004840401AB0FA80F29040D21CC907C2F558
:10452000846241EA025202EBD0214005704730B468
:10453000002513E050F8042BD30744BFA9F1010371
:104540009A18091F042942F8045BFAD213468C0713
:1045500044BF15809B1CC90748BF1D7050F8041B41
:104560000029E7D130BC7047B0B581EA030C0CF0EC
:10457000004C40F2FF7515EA11541DBF15EA1357A0
:10458000AC42AF4239E0E41923EA455343F48013C7
:10459000C90241F0004141EA505EC7021100A7FB89
:1045A000020200284FF00000EEFB01204FF0000156
:1045B000E3FB072118BF42F00102401800214941E6
:1045C000E3FB0E01A4F580640F0302D252004041C8
:1045D000494154F101046CDD470872F1004250F189
:1045E000000051EB0451A1F580115CBF41EA0C01C0
:1045F000B0BD4CEA05510020B0BD05EA1357AC42EE
:1046000014BFAF4241E050EA410E1CBF52EA430ED4
:1046100002E061460020B0BD24423C441BD15FEA69
:10462000070EF6D0090302BF01460020AEF1140EBA
:10463000B1FA81F7AEEB070401FA07FE0C37C7F1B8
:10464000200100FA07F7C8404EEA000E23EA45535E
:1046500043F48013A2E733F00043B3FA83F704BFB7
:10466000B2FA82FE77440B3FE41BB7F1200E2FBF56
:1046700002FA0EF3BB40C7F1200E22FA0EFE38BF3D
:1046800043EA0E03BA40641C82E750EA410E14BFAD
:1046900052EA430E6FF000014FF4001717EB430F7F
:1046A0008ABF194617EB410FB5E74CEA05510020C8
:1046B000B0BDD4F10104B4F120070FDAC4F1200732
:1046C000520828BF42F0010210FA07F501FA07F775
:1046D000E1BF2A43E0403843E1400FE0352C98DC4D
:1046E000C7F1200452EA400220FA07F218BF42F054
:1046F000010231FA07F0A1400A43002172F10042A1
:1047000050F1000051EB0C01B0BD0268531C036076
:104710001170704770B44FF0004591EA030F40F1FB
:10472000BF806B40841A71EB030604D26E40001BFD
:10473000B141121973414FF4001C1CEB410F34BFFF
:104740007CEB430683E00C0DA4EB1356362E00F3EE
:104750007C80012E45EAC32341DC43EA525312BF59
:10476000D20292025B08240545EAC12141EA505178
:10477000D2EBC020994125D407D1B0FA80F610FAC7
:1047800006F162D00020203608E0B1FA81F6B1408F
:10479000C6F1200220FA02F21143B0404FEAF4744D
:1047A000B4EB465434F001064FEA74040AD8D6F547
:1047B0000016760D04F00044F04061FA06F2504015
:1047C000F1404840C00A40EA415021F0004128BF72
:1047D0005FEA500550F1000044EBD12135E0DB0ADF
:1047E00045EAC121C90AB6F120050EDD42EA0242BE
:1047F000120CC5F1200603FA06F6EB4042EA060564
:104800006D42984161F100010DE062FA06F5F24057
:10481000554063FA06FC82EA0C02F3405A406D42AE
:10482000904161EB030111F4801F05D1641E620504
:1048300002D06D004041494121F48011430875F1D7
:10484000004350F1000041EB045170BC70471CEB79
:10485000410F15D223F0004352EA43060BD04FEA32
:104860004C0CBCEB410F04D80C0D661E342EB7DD8A
:10487000EBE7801A994150EA410608BF0021E4E7BE
:1048800008BF1CEB430F28BF6FF00001DDE7FEE718
:1048900070B44FF0004591EA030F7FF543AF6B40D2
:1048A000841A71EB030603D2001BB1411219734144
:1048B0004FF4001C1CEB410F34BF7CEB430442E07F
:1048C0000C0DA4EB1356352E4FDC45EAC323DB0A4F
:1048D00045EAC121C912B6F120050DDD63FA05F6DE
:1048E000EB4086EA0305124218BF45F00105C018E7
:1048F00051F100010CD213E062FA06F5F240554086
:10490000F3415A40B340F3405A408018594107D30D
:1049100049085FEA30005FEA350528BF45F0010528
:1049200001F58011420875F1004250F1000041EBA1
:1049300004514E0016F5001F70BC38BF70470020B0
:10494000090D090570471CEB410F10D252EA4306CE
:104950000BD0BCEB410F05D80C0DAB43661E342EBB
:10496000B6DD02E0AB438018594170BC704770BCA3
:104970007047FEE7C1F30A5340F2FE329B1A14DD82
:10498000D3F120034FEAE17208DDC90241EA505138
:1049900041F00040D84080185040704703F2E130A9
:1049A00010B1D24382F00040704700207047FEE70C
:1049B000642000BF401E0028FBD1704780B5012253
:1049C00001216820FFF75EFC012201216920FFF729
:1049D00059FC9348016841F480710160026842F417
:1049E0000072026001BD10B501216920FFF77FFC54
:1049F0008B4C206840F4007020600420216841F452
:104A000080712160FFF7D4FF206820F400702060DF
:104A1000042057E010B501216920FFF768FC804CA5
:104A2000206820F4807020600420216821F4007147
:104A30002160FFF7BDFF206840F4807020600420F3
:104A4000216841F400712160BDE81040B0E710B565
:104A500000216920FFF74BFC714C206840F4007086
:104A600020600120FFF7A4FF206840F480702060E0
:104A70000120FFF79DFFFB212069C0F3402028B1F2
:104A8000491EF9D1FFF7C6FF012010BD206820F4B0
:104A900080702060002010BD10B5614C226822F4A7
:104AA0008072226001216920FFF721FC216821F436
:104AB000007121600120FFF77BFF206840F48070C7
:104AC00020600220FFF774FF206820F480702060CF
:104AD00010BD10B5524C226822F480722260012170
:104AE0006920FFF704FC216841F400712160012076
:104AF000FFF75EFF206840F4807020600120E1E74E
:104B000070B5054601216920FFF7F1FB444E30687E
:104B100020F48070306008243068290620F400708A
:104B2000C90F40EA412030606D000120FFF740FFCF
:104B3000306840F4807030600120FFF739FF306842
:104B400020F4807030600120FFF732FF641EE3D153
:104B500070BDF8B5054600216920FFF7C8FB0026A7
:104B600008242F4F386820F48070386076000120C8
:104B7000FFF71EFF386840F4807038603869C0F372
:104B8000402000B1761C0120FFF712FF641EE9D11E
:104B900015B1FFF781FF01E0FFF79BFFF0B2F2BD17
:104BA00070B504460D461646FFF71DFF2046FFF779
:104BB000A7FFFFF74CFF00B12AE02846FFF7A0FF50
:104BC000FFF745FFFFF70FFF641CE0B2FFF798FF08
:104BD000FFF73DFF0020FFF7BCFF30701CE070B511
:104BE00004460D461646FFF7FEFE2046FFF788FFF7
:104BF000FFF72DFF50B92846FFF782FFFFF727FF89
:104C00003046FFF77DFFFFF722FF00B100E003E031
:104C1000FFF700FF012070BDFFF7FCFE002070BD14
:104C2000C0F00F40002201F0C5BBFEE713F0004CBE
:104C300003D55B42524263F100039CEA210C00F071
:104C4000178010B5644603D34942404261F1000128
:104C500000F00EF8640004D34942404261F10001C3
:104C6000244203D55B42524263F1000310BD0000B1
:104C7000BBBBE1B1B2F5803F80F07E80022A1ED935
:104C80008C46B1FBF2F102FB11C31B0443EA104353
:104C9000B3FBF2FC02FB1C3380B240EA0343B3FBDC
:104CA000F2F002FB103240EA0C4000237047022A67
:104CB00005D98446B0FBF2F002FB10C270474AB13E
:104CC00005D100F0010249085FEA30007047002278
:104CD0000023704701F09EBB0B0002000021002062
:104CE0007047904271EB030CF6D3B3F5803F2FD29F
:104CF000F0B5B3FA83F7B1FA81F4A7F10F0E3D1BBB
:104D00005340CEF1200602FA0EF2F3415340B5F1C2
:104D10000F0746D80F3C2C444140C4F12006A04068
:104D2000F1414140B1FBF3F603FB1611A2FB06452E
:104D3000001BA94102D2761E8018594180EA010267
:104D400021FA0EF362FA0EF200215A403046F0BD0D
:104D500030B4B1FBF3FC03FB1C11A2FB0C45001BA0
:104D6000A94103D2ACF1010C8018594130BC024674
:104D70000B46604600217047B2F1807F65D3F0B5E5
:104D8000B2FA82F7B1FA81F4C7F10F063D1B22FA9D
:104D900006F307F1110EF24120355A40B5F10F0725
:104DA000B8D94140C4F12006A040F1414140B1FBD7
:104DB000F3FC03FB1C11A2FB0C45001BA94103D211
:104DC000BCF1010C801859410F2F12D30F3FC903BA
:104DD00041EA5041B1FBF3F603FB1611A2FB064575
:104DE000D4EBC030A94102D2761E8018594146EA60
:104DF000CC3C07B34140C7F12006B840F1414140E7
:104E0000B1FBF3F603FB1611A2FB0645001BA941FB
:104E100002D2761E8018594180EA010221FA0EF36F
:104E2000C7F1200462FA0EF20CFA07F05A402CFA8D
:104E300004F13043F0BD80EA010221FA0EF30021B3
:104E400062FA0EF260465A40F0BD8C46B1FBF2F1B8
:104E500002FB11C31B0243EA1063B3FBF2FC02FB2B
:104E60001C331B024CEA002043EA1063B3FBF2FC44
:104E700002FB1C331B024CEA002043EA1063B3FB25
:104E8000F2FC02FB1C331B024CEA002043EA1063D5
:104E9000B3FBF2FC02FB1C324CEA002000237047FB
:104EA0000300002013F0030F09D0521E22BF13F895
:104EB000010B11F801CBB0EB0C00F3D0704711F0EF
:104EC000030F14D1121F22BF53F8040B51F804CB67
:104ED0006045F7D0121D0AD200BA9CFA8CFCB0EBE8
:104EE0000C0038BF6FF0000088BF01207047521ED1
:104EF00022BF13F8010B11F801CBB0EB0C00F6D078
:104F0000521C08BF10467047C8234FF48062DFF878
:104F1000BC1740F6F630FEF793BD3EB5044600F0F0
:104F200003000FF2D0710A5C8DF8042001ADC4F3C8
:104F3000C1028B5C6B70C4F38112895CA9700FF2A3
:104F4000B871085C8DF80000C4F3C1000A5C8DF8EC
:104F50000120C4F3811001AA0B5C8DF802300321FB
:104F600040F22640FEF71AFD002847D16A46032189
:104F700040F22A40FEF712FD00283FD103220FF233
:104F80007C7101A801F058FA03220FF2747168468F
:104F900001F052FA60070BD59DF804109DF800004F
:104FA00041F0010140F001008DF804108DF800007F
:104FB000A00609D569789DF8010041F0010140F093
:104FC000010069708DF80100E00509D5A9789DF808
:104FD000020041F0010140F00100A9708DF80200CB
:104FE00001AA03214FF48860FEF7D8FC30B96A4665
:104FF000032140F23140FEF7D1FC18B14FF0FF30F1
:1050000003B030BDDFF8C8060481002003B030BD16
:105010002DE9F849DFF8B816DFF8B886098901F0FC
:10502000030250F822204C0748BF52424D0805F0B9
:105030000C0544598D0648BF64420B0903F00C036C
:10504000C658C80548BF76421046D117A8FB0023B2
:1050500008FB0133920F42EA8302E517A8FB040123
:1050600008FB0511800F13168DF8032040EA810418
:1050700011128DF802108DF80030F017A8FB067B96
:10508000042108FB00BB10148DF801006A464FF4A0
:105090007470BF0FFEF782FC47EA8B0788B92016B1
:1050A0008DF80000211420128DF801108DF80200F7
:1050B0008DF803406A4604214FF47570FEF76EFCCC
:1050C00018B14FF0FF30BDE8F28938168DF80000B6
:1050D000391438128DF801108DF802008DF8037024
:1050E0006A4604214FF47670FEF758FCBDE8F28959
:1050F0002DE9F84984B007466846FDF739FFBDF849
:1051000000004FEAC038DFF8C805018901F003024A
:1051100057F822604A0748BF76424B0803F00C0359
:105120008A06FC5848BF6442080900F00C00CA0512
:10513000385848BF4042F717A8FB062308FB07333F
:10514000920F42EA8302E117A8FB046708FB01778C
:10515000B60FC117A8FB005B1014131646EA8706AA
:1051600008FB01BB01A9AD0FCA7048708DF804306F
:1051700045EA8B053016131232148DF80920087198
:105180002A168B700A722814291233128DF80D001A
:105190008DF80E108DF80A308DF80B608DF80F50D9
:1051A00001AA0C214FF42570FEF7F8FB05B0BDE80D
:1051B000F0891CB5C828044618DCC82191FBF0F121
:1051C000491E0A04120E8DF800208DF801106A465F
:1051D000022140F21620FEF7E1FB38B90FF224520B
:1051E0000C2140F6C120FEF7D9FB00B104E0DFF846
:1051F000E0048481002016BD4FF0FF3016BDF8B5E5
:1052000088B0054602208DF8080002AECA21E320CE
:105210007170B0700923F37002AA04216820FEF7B0
:10522000BDFBA32168068DF8081005D5C02171705B
:10523000C820B070C22101E07170B17015F4C07F58
:10524000F17006D0C4203071CC21C6207171B071CC
:1052500003E0A32131717171B171A3208DF80F00AA
:105260003072707202AA0A2140F6A720FEF796FB60
:1052700015F0030419BF20218DF80810D8228DF8ED
:10528000082002AA012140F6B620FEF787FBA806F7
:1052900007D50FF2484292E8881005A981E88810E6
:1052A00006E00FF2444191E88C0005A880E88C00EC
:1052B00005AA09214FF49760FEF770FB15F4C07F33
:1052C00019D0E80508D5B2218DF808108B20707030
:1052D000B621B1709B2007E0B0218DF80810802026
:1052E0007070B421B1709020F07002AA042140F6D1
:1052F000A220FEF753FBE80740F1AC80F8218DF8BF
:10530000081002AA01214FF40B60FEF747FB684624
:10531000FDF758FD9DF80000022811D004280BD09D
:10532000082805D0102842D10A204FF4F0610AE085
:1053300014204FF4706106E028204FF4F05102E091
:1053400050204FF470518DF80400002201A80B0A80
:105350004270C170837001AA02214FF4EA70FEF717
:105360001DFB20BB0DF1060202214FF49270FEF7E7
:1053700015FBE0B901AA02214FF4EC70FEF70EFB19
:10538000A8B90DF1060202214FF49470FEF706FB56
:1053900068B901AA02214FF4EE70FEF7FFFA30B9A6
:1053A0000DF1060202214FF49670FEF7F7FA3F2046
:1053B0008DF800006A4601214FF4A470FEF7EEFA62
:1053C00000208DF800006A46012140F24F10FEF7E0
:1053D000E5FA002114228DF800108DF80120022139
:1053E0006A464FF4EF70FEF7D9FA002164228DF877
:1053F00000108DF8012002216A464FF4ED70FEF78F
:10540000CDFA8E218DF801100020F92290218DF81F
:1054100000008DF802208DF803106A4604214FF435
:10542000AE70FEF7BBFA002108228DF800108DF84F
:10543000012002216A464FF4AD70FEF7AFFA002159
:1054400002228DF800108DF8012002216A464FF4E7
:10545000AC7006E0D8208DF8080002AA01214FF4B4
:105460000B60FEF79BFAA90747BFD9228DF80820E9
:10547000D8218DF8081002AA012140F23D70FEF7F4
:105480008DFA680740F698260CD5C021C2228DF807
:1054900000108DF80120C421C6228DF802108DF86D
:1054A000032004E08B220421684601F009F86A46D3
:1054B00004213046FEF772FAFDF799FBE80640F644
:1054C0009E260CD5202128228DF800108DF8012071
:1054D000302138228DF802108DF8032004E0A32239
:1054E0000421684600F0ECFF6A4604213046FEF7CE
:1054F00055FAFDF77CFB764E45F008007081FDF70C
:1055000076FB0020690648BF062015F4C07F18BF4F
:10551000801D15F0140F18BF103004B1001DB073BA
:1055200009B00020F0BD2DE9FC4788B01546129C5B
:10553000139ADFF89CA100260746268088469AF831
:105540000E0099466946FDF7B9FD002859D1BAF811
:105550000A1011F0140F5BD09DF801209DF8000097
:105560009DF80230120442EA00629DF8030042EA0C
:10557000032202432A6012149DF805309DF80400AE
:105580001B0443EA00639DF8060043EA00239DF8EC
:10559000070003436B601B149DF809009DF8086029
:1055A000000440EA06669DF80A0046EA00269DF8D7
:1055B0000B0040EA060EC5F808E013FB03F39DF864
:1055C0000D009DF80C60000440EA06669DF80E0090
:1055D00046EA00269DF80F003043E8604FEA2E456A
:1055E00012FB0232001415FB052210FB00221026CC
:1055F00002F171423848824206D3FDF7F8FA0020E2
:1056000020804FF0FF305EE0228842F480722280DA
:1056100048061AD50DEB06000378427842EA0322C9
:10562000A8F800208378C27842EA0322A8F8022072
:1056300001AB40799A5D40EA0220A8F80400B61D4B
:10564000228842F00802F6B2228011F4C07F16D000
:105650000DEB06000278437843EA02233B80827810
:10566000C37843EA02237B8001AA4079935D40EA34
:105670000320B880B61D228842F07002228011F00B
:10568000030F1CD00DEB06077978FD78CA0705F0EB
:105690003F000CD5DAF800204AB1830800EB5371C3
:1056A000CB08A0EBC301491CC9B2C0089047787869
:1056B000010704D5DAF8041009B1A809884748465B
:1056C000FEF7E2FA00200AB0BDE8F087706E000035
:1056D000E002FF1F09E3CA0201000002B8AAB38D6D
:1056E000B4980D355D000000B8AAAAAAB088C3C559
:1056F000C70000004CCD6C000CC92C00365676005B
:1057000026466600FEF2ABC4AAF1DFDFBBAFDFDFE7
:1057100041EC100B01BD80B551EC100B00F0EEFE1A
:10572000F6E780B553EC112B51EC100B00F05CFF49
:10573000EEE7FEE701F000428B1AA3F16051B1F5EC
:10574000801F0ADBB1F17F6F1FD242EAC102C100A4
:1057500071F1004142EB507070470B15C3F1090322
:10576000212B10D2890241EA90518002012849413F
:1057700041F0004121FA03F0C3F12003994071F197
:10578000004150417047100070476FF0000013EB6C
:10579000103F5CBF000E42EAC05070472DE9F04355
:1057A0009FB00FF6A836269CDFF804898DF83B40A1
:1057B000029100240B944FF0FF37044691461D469A
:1057C0000AE019F8011B0298A0470028029000F097
:1057D000A1800B98401C0B9099F8000050B125282F
:1057E000EFD10021002205910692079108920991BC
:1057F0000A9203E00B98A0E041F0010119F8010FB3
:105800002028F9D023280CD02B2804D02D2805D00F
:10581000302809D080E041F00201EFE741F00401B7
:10582000ECE741F00801E9E741F01001E6E70D92ED
:105830000AE00D98404505DA00EB800002EB4002DB
:10584000303A0D9209F1010999F80020A2F13000D7
:105850000A28EED399F800002E2818BF0C9726D1FD
:1058600019F8010F2A2808D12868286009F10109D0
:1058700050F8042B28600C9219E02D280CBF09F178
:105880000109002000220C920BE040B90C9A42451D
:1058900005DA02EB820203EB4203303B0C9309F181
:1058A000010999F80030A3F130020A2AEDD3ADF8CE
:1058B0003810304699F8001000F034FF08B119F89C
:1058C000010B8DF83A009DF83A00682805D199F847
:1058D000000068280CD1622106E06C2804BF99F80A
:1058E00000006C2804D171218DF83A1009F10109EA
:1058F00010A804902A4619F8013B6946204600F09A
:105900005CF838B910AA6946204600F086F90028EC
:105910007FF562AF384610E02A2888D12A682A60CD
:1059200052F8040B2A6000280D9003D540420D90D8
:1059300041F0040109F101098CE71FB0BDE8F083D3
:10594000622820D0682811D06A2803D06C2827D07C
:10595000712825D10868C01D20F007000860D0E933
:10596000002308300860194610467047002A0A686C
:105970000A60106803D0121D0A6000B217E0121D01
:105980000A6080B217E0002A0A680A60106803D033
:10599000121D0A6040B20AE0121D0A60C0B20AE09D
:1059A000002A0A680A60106803D0121D0A60C11735
:1059B0007047121D0A600021704770B51C460D46E5
:1059C000B4F125002E69114600F015812038022817
:1059D00063D9133840D00B3816D0401E1ED0401E5D
:1059E00002285AD9001F19D0401F00F08180401EA4
:1059F00032D0401E00F0CB80C01E00F0DA80801E46
:105A00002AD0C01E28D0FCE06869421C6A610A687E
:105A10000A6052F8043B0A603354FCE095F83A00FF
:105A20000122FFF78DFFC5E90001002904D568694F
:105A3000411C69612D220DE0288F810704D568691A
:105A4000411C69612B2205E0C00721D56869411C12
:105A50006961202232541BE095F83A000022FFF7DA
:105A60006FFFC5E9000195F83800010710D5D5E9A9
:105A70000023002B08BF002A0AD044F02000782819
:105A800006D1686930213154401C421C6A6134548B
:105A9000214668693044E86087E00868C01D20F04E
:105AA00007000860D0E9002308300860C5E900233A
:105AB000D5E90001C80F04D06869411C69612D2235
:105AC0000DE0288F810704D56869411C69612B228C
:105AD00005E0C00704D56869411C69612022325481
:105AE00068693044E8602146284600F0C4F992E035
:105AF00005F13A02507820B14FF0FF340FF6540010
:105B000062E01078622808D0682824D06A2812D071
:105B10006C282ED071280ED02BE00A680A6052F84B
:105B2000040B0A6020B94FF0FF340FF640004BE041
:105B3000E96A01706FE00A680A6052F8040B0A60B3
:105B400020B94FF0FF340FF624003DE0EA6AD31786
:105B5000C0E900235FE00A680A6052F8040B0A609B
:105B600020B94FF0FF340FF604002DE0E96A018000
:105B700051E00A680A6052F8040B0A6020B94FF03D
:105B8000FF340FF2E8701FE0E96A016043E00A6841
:105B90000A6052F8040B0A60002120F0000221F094
:105BA000FF33C5E90023EE607821284600F0BBF8FA
:105BB00031E00868086050F8044B0860EC603CB9BC
:105BC0004FF0FF340FF2BC7000F0B8FD201A70BD2A
:105BD0002E6B002E04D5204600F0D0FD044608E0D0
:105BE00032460021204600F0E5FD002814BF041BCA
:105BF0003446AC610FE06869411C6961252232546A
:105C000009E06969481C686125227254210002D0AC
:105C1000431C6B613454002070BD2DE9FC410F46DC
:105C2000064690467A6B7869396ABC6A121AB86976
:105C3000521A796A121AF869521A121A97F8380029
:105C4000141B41070FD42020002C8DF800000ADD22
:105C5000254601236A463946304600F05FFB00289E
:105C60005DD16D1EF5D17B6942463946304600F064
:105C700055FB002853D130208DF800003D6A002DDF
:105C800009DD01236A463946304600F047FB00280B
:105C900045D16D1EF5D1BB69FA683946304600F032
:105CA0003DFB00283BD130208DF800007D6A002D9F
:105CB00008DD01236A463946304600F02FFB70BBF1
